:020000040800F2
:10000000B8060020BD280008850200088702000805
:100010008B0200088F020008930200080000000015
:10002000000000000000000000000000970200082F
:1000300099020008000000009B0200089D020008D1
:10004000D7280008D7280008D7280008D728000894
:10005000D7280008D7280008D7280008D728000884
:10006000D7280008D7280008D7280008D728000874
:10007000D7280008D7280008D7280008D728000864
:10008000D7280008D7280008D7280008D728000854
:10009000D7280008D7280008D7280008D728000844
:1000A000D7280008D7280008D7280008D728000834
:1000B000D7280008D7280008D7280008D728000824
:1000C000D7280008D7280008D7280008D728000814
:1000D000D7280008D7280008D7280008D728000804
:1000E000D7280008D7280008D728000800F002F811
:1000F00000F041F80AA090E8000C82448344AAF181
:100100000107DA4501D100F036F8AFF2090EBAE87E
:100110000F0013F0010F18BFFB1A43F0010318473B
:100120001C3500003C350000103A24BF78C878C167
:10013000FAD8520724BF30C830C144BF04680C60ED
:10014000704700000023002400250026103A28BF35
:1001500078C1FBD8520728BF30C148BF0B60704739
:10016000782902F00F84002070471FB502F018FDB7
:100170001FBD10B510BD02F0BFFC1146FFF7F5FF23
:1001800000F008F802F0DDFC03B4FFF7F2FF03BC57
:1001900002F022FA0F251924482002F0CFF94FF47B
:1001A000964002F063FA00F055FA4FF4E13002F0A5
:1001B00020FA4FF478402E4908802EA232210846BA
:1001C00001F08FFB13E04FF4FA724FF41971002025
:1001D00000F0ADF8642002F0C5F94FF4FA724FF464
:1001E0009671002000F0A3F8642002F0BBF928000B
:1001F000A5F10101CDB2E6D11DE0012000F0C4F867
:100200001FA25021322001F06CFB642002F0AAF9F9
:100210004FF4FA72C821012000F089F8642002F03E
:10022000A1F94FF4FA724FF4AF71012000F07FF89A
:10023000642002F097F9002CDFD118E010A24621CB
:10024000322001F04EFB4FF4FA7240F26D110120A2
:1002500000F06DF8322002F085F94FF4FA7240F2A6
:100260008A21012000F063F8322002F07BF9E5E7F3
:1002700010000020736572766F5F64656D6F00001B
:100280004F4B0000704700BFFEE700BFFEE700BF16
:10029000FEE700BFFEE770477047704770470000F9
:1002A00055490A785549097828311144524A5278FB
:1002B0001144514A927811444F4AD2781144C943AB
:1002C000C8B2704770B50546002400BF0DE04C4829
:1002D000015D4C4802F06BF800BF8021494802F0F4
:1002E000D4F80028F9D0601CC4B2AC42EFDB70BD7A
:1002F00000B5FF2042490870487040480078887077
:100300000720C870032008711E2048713A48007801
:10031000887139484078C871374880780872364803
:10032000C0784872FFF7BCFF3549887200BD2DE9DF
:10033000F04706460C46154630480670FF2094FBF1
:10034000F0F0C7B2FF2094FBF0F100FB114000F089
:10035000FF08FF2095FBF0F000F0FF09FF2095FB60
:10036000F0F100FB115000F0FF0A234880F80080F4
:10037000477080F802A080F80390FFF7B9FF0B20C8
:10038000FFF7A0FFBDE8F08710B50446FF201E4927
:1003900008704870FE2088700420C870032008711F
:1003A0004871084684718078C978084416490979EB
:1003B0000844154949790844134989790844C043D8
:1003C0001149C8710820FFF77DFF10BD10B54FF42B
:1003D000FA7240F26D110120FFF7A9FF322002F0FE
:1003E000C1F84FF4FA7240F28A210120FFF79FFF13
:1003F000322002F0B7F810BD0300002002000020F8
:100400004800002000440040070000204FF48071A5
:10041000FF4A516149005161FE4908604FF0800177
:10042000516111614FF400711161704710B50446BC
:100430000B462046FFF7EAFF4FF48070F44908614D
:1004400040004861F34803604FF080004861086154
:100450004FF40070086110BD70B504462046FFF7E8
:10046000D5FF4FF08830EC490860EC49C1F8040C26
:100470004FF6FF70E74908604FF48070E449086167
:100480004FF4007048614FF0400048614FF00500A4
:1004900002F083F84020DE490861E048D0F8080CFB
:1004A00085B2481508614FF03330DB49086001F12F
:1004B000040108604FF6FF70D6490860284670BDF9
:1004C00000B52220FFF7A2FF00BD4FF48071D04A93
:1004D000116149005161CF4908604FF080015161BD
:1004E00011614FF400711161704730B5014601F0A0
:1004F0001F04C1F34513CA0AE50205EB4315154471
:10050000A8B230BD70B504460D46F02C02DAB5F540
:10051000A07F01DB002070BD2946204602F022FBAF
:100520002220FFF773FF4FF08830BB490860BB49BA
:10053000C1F8040C4FF6FF70B64908604FF48070A4
:10054000B34908614FF4007048614FF040004861C2
:1005500008614FF0020002F020F84020AC494861E9
:10056000022002F01AF84020A9490861AB48D0F8EF
:10057000080C86B2481508614FF03330A649086070
:1005800001F1040108604FF6FF70A449C1F80C0C9A
:10059000A3480088A0F58A4131390BD0A0480088D3
:1005A000A0F50941893905D09D480088A0F535415D
:1005B000053901D13046AEE73046FFF796FFAAE78E
:1005C00000B540F273110720FFF730FF00BD00B502
:1005D00000210720FFF72AFF00BD70B504460D4635
:1005E0002946204602F0BEFA2220FFF70FFF4FF403
:1005F000807087490861400048618A4800888549C1
:1006000008604FF080008249486108614FF4007033
:10061000086170BD70B5044600250021084602F04F
:10062000A1FAFFF74DFF00BF10E04FF4807078494A
:10063000086140004861774804604FF080004861DD
:1006400008614FF40070086105F10105B5F5963FAA
:10065000EBD370BD08B50121192001F0FEFC01218A
:10066000714801F016FB4FF4F860ADF8000010205F
:100670008DF8030003208DF802006946644801F0FC
:1006800039FA4FF4F861624801F0DFFA4FF6FF7073
:10069000ADF800006946604801F02CFA4FF6FF7192
:1006A0005D4801F0D2FA322001F05CFF0121002008
:1006B000FFF7BCFE322001F055FF0020FFF7CCFE13
:1006C000574908800846018858A002F019F9544893
:1006D0000088A0F51341253905D051480088A0F5C0
:1006E000134128397ED141F28F01EC20FFF79EFEA5
:1006F00041F23421EF20FFF799FE4FF48071012081
:10070000FFF794FE4FF4E0610220FFF78FFE4FF4F5
:1007100080710120FFF78AFE4FF4E0610220FFF7AD
:1007200085FE41F230010320FFF780FE0021042006
:10073000FFF77CFE40F207210820FFF777FE00213B
:100740000920FFF773FE00210A20FFF76FFE012149
:100750000C20FFF76BFE00210D20FFF767FE002144
:100760000F20FFF763FE00211020FFF75FFE072137
:100770001120FFF75BFE00211220FFF757FE00213A
:100780001320FFF753FE322001F0ECFE41F29051AE
:100790001020FFF74BFE40F227211120FFF746FE05
:1007A000322001F0DFFE9C211220FFF73FFE3220B5
:1007B00001F0D8FE4FF4C8511320FFF737FE232174
:1007C0002920FFF733FE0E212B20FFF72FFE3220CA
:1007D00001F0C8FE00212020FFF728FE40F23F1163
:1007E000212000E08EE0FFF721FE322001F0BAFE6A
:1007F00007213020FFF71AFE40F207713120FFF782
:1008000015FE06213220FFF711FE40F2047113E0BD
:10081000001001400C0C0140000C014000000140A0
:10082000140000201000002000023000204C43443F
:100830002049443A25780A003520FFF7F7FD41F6B4
:1008400004713620FFF7F2FD04213720FFF7EEFD9B
:1008500000213820FFF7EAFD40F206713920FFF74A
:10086000E5FD40F201713C20FFF7E0FD0F213D2046
:10087000FFF7DCFD322001F075FE00215020FFF76C
:10088000D5FDEF215120FFF7D1FD00215220FFF7C8
:10089000CDFD40F23F115320FFF7C8FD4FF4274133
:1008A0006020FFF7C3FD01216120FFF7BFFD00219C
:1008B0006A20FFF7BBFD00218020FFF7B7FD002174
:1008C0008120FFF7B3FD00218220FFF7AFFD00215B
:1008D0008320FFF7ABFD00218420FFF7A7FD002157
:1008E0008520FFF7A3FD10219020FFF79FFD4FF417
:1008F000C0619220FFF79AFD40F233110720FFF705
:1009000095FD7FE2FF480088A0F51341203904D00F
:10091000FC480088B0F5134F7ED100210846FFF750
:1009200085FD4FF480710120FFF780FD4FF4E061F9
:100930000220FFF77BFD41F230010320FFF776FD37
:1009400000210420FFF772FD40F202210820FFF78A
:100950006DFD00210920FFF769FD00210A20FFF746
:1009600065FD01210C20FFF761FD00210D20FFF73F
:100970005DFD00210F20FFF759FD322001F0F2FD4F
:1009800040F201110720FFF751FD322001F0EAFD8E
:100990004FF486511020FFF749FD07211120FFF782
:1009A00045FD4FF488711220FFF740FD4FF4306190
:1009B0001320FFF73BFD00212920FFF737FD44F20C
:1009C00010012B20FFF732FD00215020FFF72EFDF4
:1009D000EF215120FFF72AFD00215220FFF726FDCD
:1009E00040F23F115320FFF721FD4FF41C516020CE
:1009F000FFF71CFD01216120FFF718FD00216A208F
:100A0000FFF714FD00218020FFF710FD0021812059
:100A1000FFF70CFD002100E02DE08220FFF706FD2E
:100A200000218320FFF702FD00218420FFF7FEFC58
:100A300000218520FFF7FAFC10219020FFF7F6FC3B
:100A400000219220FFF7F2FC01219320FFF7EEFC3A
:100A50004FF488719520FFF7E9FC00219720FFF7FC
:100A6000E5FC00219820FFF7E1FC40F2731107201C
:100A7000FFF7DCFCC6E1A3480088A0F5A8410839CF
:100A80007ED14FF480710120FFF7D0FC4FF4E0617C
:100A90000220FFF7CBFC41F230010320FFF7C6FC38
:100AA00000210420FFF7C2FC40F207210820FFF7D5
:100AB000BDFC00210920FFF7B9FC00210A20FFF747
:100AC000B5FC00210C20FFF7B1FC00210D20FFF741
:100AD000ADFC00210F20FFF7A9FC142001F042FD1E
:100AE00041F2B0611020FFF7A1FC01211120FFF7B6
:100AF0009DFC01211720FFF799FC4FF49C711220F7
:100B0000FFF794FC4FF400611320FFF78FFC0921DD
:100B10002920FFF78BFC09212A20FFF787FC002101
:100B2000A420FFF783FC00215020FFF77FFCEF217A
:100B30005120FFF77BFC00215220FFF777FC40F2A9
:100B40003F115320FFF772FC4FF41C516020FFF758
:100B50006DFC01216120FFF769FC00216A20FFF78D
:100B600065FC00218020FFF761FC00218120FFF758
:100B70005DFC00218220FFF759FC0021832000E06A
:100B800023E0FFF753FC00218420FFF74FFC0021F6
:100B90008520FFF74BFC13219020FFF747FC002135
:100BA0009220FFF743FC03219320FFF73FFC4FF413
:100BB00088719520FFF73AFC40F273110720FFF788
:100BC00035FC322001F0CEFC1CE14E480088A0F537
:100BD000A85105397ED10720FFF728FC322001F00B
:100BE000C1FC4FF48E711220FFF720FC0121A420DC
:100BF000FFF71CFC0F210820FFF718FC08210A2032
:100C0000FFF714FC08210D20FFF710FC40F20771DC
:100C10003020FFF70BFC07213120FFF707FC40F2E3
:100C200003613220FFF702FC4FF4E0613320FFF74D
:100C3000FDFB40F202213420FFF7F8FB02213520B2
:100C4000FFF7F4FB41F60F713620FFF7EFFB40F2A0
:100C500007713720FFF7EAFB00213820FFF7E6FB9A
:100C600000213920FFF7E2FB40F207713A20FFF73D
:100C7000DDFB00213B20FFF7D9FB07213C20FFF7DC
:100C8000D5FB00213D20FFF7D1FB322001F06AFCAB
:100C900001210720FFF7CAFB01211720FFF7C6FB40
:100CA000322001F05FFC4FF4BD511020FFF7BEFB76
:100CB00040F217211120FFF7B9FB4FF48F7112207A
:100CC000FFF7B4FB4FF470611320FFF7AFFB002177
:100CD0002A2000E097E0FFF7A9FB0A212920FFF76F
:100CE000A5FB4FF49F711220FFF7A0FB00215020BD
:100CF000FFF79CFBEF215120FFF798FB00215220CA
:100D000002E0000014000020FFF790FB40F23F11CA
:100D10005320FFF78BFB4FF41C516020FFF786FB3D
:100D200001216120FFF782FB00216A20FFF77EFB93
:100D300000218020FFF77AFB00218120FFF776FB5E
:100D400000218220FFF772FB00218320FFF76EFB5A
:100D500000218420FFF76AFB00218520FFF766FB56
:100D600013219020FFF762FB4FF440719220FFF7B0
:100D70005DFB05219320FFF759FB00219520FFF72C
:100D800055FB00219720FFF751FB00219820FFF72A
:100D90004DFB4FF480710120FFF748FB4FF4E061F9
:100DA0000220FFF743FB41F230010320FFF73EFB37
:100DB00000210420FFF73AFB00210C20FFF736FB4F
:100DC00000210F20FFF732FB00212020FFF72EFB30
:100DD00000212120FFF72AFB21210720FFF726FB16
:100DE000142001F0BFFB61210720FFF71FFB142037
:100DF00001F0B8FB40F273110720FFF717FB142036
:100E000001F0B0FB47E3FF480088A0F53541053904
:100E10007DD10846FFF70AFB00210846FFF706FBD5
:100E200000210846FFF702FB00210846FFF7FEFA03
:100E30000121A420FFF7FAFA142001F093FB4FF4EC
:100E40001C516020FFF7F2FA40F202210820FFF760
:100E5000EDFA4FF405713020FFF7E8FA43F215710F
:100E60003120FFF7E3FA40F204613220FFF7DEFAA7
:100E700040F616613320FFF7D9FA42F211213420EF
:100E8000FFF7D4FA4FF4A8513520FFF7CFFA48F214
:100E900007513620FFF7CAFA41F207413720FFF722
:100EA000C5FA41F203413820FFF7C0FA202139206A
:100EB000FFF7BCFA1A219020FFF7B8FA00211020A2
:100EC000FFF7B4FA07211120FFF7B0FA0021122032
:100ED000FFF7ACFA00211320FFF7A8FA142001F065
:100EE00041FB4FF4E6611020FFF7A0FA40F2371102
:100EF0001120FFF79BFA142001F034FB4FF4DC7152
:100F00001220FFF793FA142001F02CFB00E083E09D
:100F10004FF470611320FFF789FA80212A20FFF730
:100F200085FA48212920FFF781FA142001F01AFBE5
:100F30004FF480710120FFF779FA4FF4E06102204D
:100F4000FFF774FA41F230210320FFF76FFA40F205
:100F500002210820FFF76AFA00210A20FFF766FA4B
:100F600000210C20FFF762FA00210D20FFF75EFA46
:100F700030210E20FFF75AFA00215020FFF756FAD1
:100F8000EF215120FFF752FA00215220FFF74EFACD
:100F900040F23F115320FFF749FA4FF41C516020F3
:100FA000FFF744FA01216120FFF740FA00216A208F
:100FB000FFF73CFA11219020FFF738FA4FF4C06197
:100FC0009220FFF733FA40F202419320FFF72EFA06
:100FD00002219420FFF72AFA142001F0C3FA01211C
:100FE0000720FFF723FA142001F0BCFA6121072043
:100FF000FFF71CFA40F273110720FFF717FA0021E0
:101000002020FFF713FA00212120FFF70FFA2221F9
:101010000020FFF70BFA3EE27A480088A0F509416C
:1010200089397DD101210020FFF700FA4AF6A40199
:101030000320FFF7FBF900210C20FFF7F7F940F63A
:101040000C010D20FFF7F2F94FF42C510E20FFF7A1
:10105000EDF9B0211E20FFF7E9F942F63F310120FA
:10106000FFF7E4F94FF4C0610220FFF7DFF9002138
:101070001020FFF7DBF946F270011120FFF7D6F9D7
:1010800000210520FFF7D2F900210620FFF7CEF955
:101090004EF61C711620FFF7C9F903211720FFF740
:1010A000C5F940F233210720FFF7C0F900210B20DA
:1010B000FFF7BCF900210F20FFF7B8F9002141200C
:1010C000FFF7B4F900214220FFF7B0F900214820D2
:1010D000FFF7ACF940F23F114920FFF7A7F90021D3
:1010E0004A20FFF7A3F900214B20FFF79FF94FF4A7
:1010F0006F414420FFF79AF900214520FFF796F948
:1011000040F23F114620FFF791F940F2077130207D
:10111000FFF78CF94FF401713120FFF787F900E0F8
:101120003DE04FF401713220FFF780F940F20251A7
:101130003320FFF77BF940F207513420FFF776F9AF
:101140004FF401713520FFF771F94FF4017136202A
:10115000FFF76CF940F202513720FFF767F940F2D0
:1011600002313A20FFF762F940F202313B20FFF7EB
:101170005DF900212320FFF759F900212420FFF712
:1011800055F94FF400412520FFF750F900214F2079
:10119000FFF74CF900214E20FFF748F97BE1194891
:1011A0000088A0F58A4131397ED101210020FFF766
:1011B0003DF90A2001F0D6F941F228611020FFF72D
:1011C00035F90E211220FFF731F940F639211320AD
:1011D000FFF72CF90A2001F0C5F940211120FFF793
:1011E00025F950211520FFF721F90A2001F0BAF95D
:1011F0001E211220FFF71AF90A2001F0B3F94FF46B
:10120000B15101E0140000201020FFF70FF942F661
:1012100039211320FFF70AF90A2001F0A3F94FF44E
:1012200080710120FFF702F94FF440710220FFF7AF
:10123000FDF841F230010320FFF7F8F840F20221F7
:101240000820FFF7F3F808210A20FFF7EFF8002144
:101250003020FFF7EBF840F202413120FFF7E6F8CB
:101260004FF483713220FFF7E1F840F2035133204D
:10127000FFF7DCF84FF482713420FFF7D7F840F223
:1012800001313520FFF7D2F840F207713620FFF721
:10129000CDF840F205313720FFF7C8F84FF402715E
:1012A0003820FFF7C3F800E03EE040F60B7139202C
:1012B000FFF7BCF802214120FFF7B8F84FF41C51AA
:1012C0006020FFF7B3F801216120FFF7AFF84FF47A
:1012D00004719020FFF7AAF84FF485719220FFF770
:1012E000A5F804219320FFF7A1F84FF48071A02006
:1012F000FFF79CF801210720FFF798F8212107202C
:10130000FFF794F823210720FFF790F833210720F7
:10131000FFF78CF840F233110720FFF787F8002120
:10132000A020FFF783F8B6E0FA480088A0F58A41CC
:1013300035397ED130211520FFF778F810219A2019
:10134000FFF774F820211120FFF770F843F22841CD
:101350001020FFF76BF802211220FFF767F841F227
:1013600038011320FFF762F8282001F0FBF8122162
:101370000846FFF75BF8282001F0F4F843F220411B
:101380001020FFF753F843F238011320FFF74EF80F
:10139000462001F0E7F800213020FFF747F840F23F
:1013A00002413120FFF742F840F207313220FFF7C7
:1013B0003DF84FF441713320FFF738F80421342011
:1013C000FFF734F840F201413520FFF72FF840F2E3
:1013D00007713620FFF72AF840F205313720FFF772
:1013E00025F84FF4C2613820FFF720F84FF4C261AE
:1013F0003920FFF71BF84FF480710120FFF716F832
:101400004FF440710220FFF711F841F23001032040
:10141000FFF70CF840F608010820FFF707F808214D
:101420000A20FFF703F84FF41C516020FEF7FEFF7F
:1014300000E030E001216120FEF7F8FF4FF49F71DA
:101440009020FEF7F3FF4FF480719220FEF7EEFF3D
:101450004FF480719320FEF7E9FF4FF44051A02034
:10146000FEF7E4FF1021A320FEF7E0FF0121072093
:10147000FEF7DCFF21210720FEF7D8FF23210720FC
:10148000FEF7D4FF33210720FEF7D0FF40F23311DF
:101490000720FEF7CBFF01209F4908604FF6FF7041
:1014A000FFF7B8F808BD2DE9F05F05460E46174670
:1014B0009846DDF828A04FF0000B781B401C1FFA5F
:1014C00080FB34461EE02146284601F04BFBFEF728
:1014D000F7FF4FF0000911E04FF480708F49086169
:1014E000400048618E48C0F80CAC8020486108611B
:1014F0008000086109F101001FFA80F9D945EBDB92
:10150000601C84B24445DEDDBDE8F09F2DE9FF4F4D
:1015100085B081468A460020049003900798A0EB8E
:1015200009050898A0EB0A06CDF80890CDF804A0AC
:10153000002D01DD012705E00DB9002702E04FF085
:10154000FF376D42002E02DD4FF0010806E016B9AC
:101550004FF0000802E04FF0FF387642B54201DD5F
:101560002C4600E034464FF0000B21E0019881B298
:10157000029880B2FFF731F8049828440490039849
:10158000304403900498A04205DD0498001B0490A9
:101590000298384402900398A04205DD0398001B8E
:1015A00003900198404401900BF101001FFA80FB69
:1015B000601C8345DADD09B0BDE8F08F2DE9F0410C
:1015C00004460D4616461F462B46324629462046FF
:1015D000FFF79CFF3B46224629462046FFF796FF31
:1015E0003B46324639462046FFF790FF3B4632469F
:1015F00029463046FFF78AFFBDE8F0812DE9F04724
:1016000006460F469046002445460320A0EB4809B5
:1016100048E03A1B91B2721B90B2FEF7DEFF3A1B14
:1016200091B2721990B2FEF7D8FF7A1991B2321BBB
:1016300090B2FEF7D2FF3A1B91B2721B90B2FEF746
:10164000CCFF7A1B91B2321B90B2FEF7C6FF3A195B
:1016500091B2721990B2FEF7C0FF7A1B91B23219A3
:1016600090B2FEF7BAFF7A1991B2321990B2FEF732
:10167000B4FF3A1991B2721B90B2FEF7AEFF641C30
:10168000B9F1000F03DAA000801D814404E0601B63
:1016900080000A3081446D1E7A1991B2321990B2DD
:1016A000FEF79BFFAC42B4DDBDE8F0872DE9FF4FAC
:1016B00081B00746894616461D46BB461948008834
:1016C0000090E82F02DCB9F59C7F02DD05B0BDE893
:1016D000F08FA6F12000C6B20E98D0B9002443E0E6
:1016E0000C2D07D106EB46000F4901EB800010F8E6
:1016F00004A004E00D4800EB061010F804A04FF021
:10170000000825E01AF0010F12D006490098088061
:1017100012E02CE014000020A80122420010014039
:101720000000014010000020AE2B0008223000080D
:101730007E4800887E49088049463846FEF74DFFBE
:101740004FEA6A0A781C87B208F1010000F0FF082E
:1017500005EBD571B8EB610FD4DB5F4609F10100F1
:101760001FFA80F9601CC4B2AC42B9DB2DE0002442
:1017700029E00C2D07D106EB46006E4901EB8000F5
:1017800010F804A004E06C4800EB061010F804A068
:101790004FF0000810E01AF0010F07D009EB040227
:1017A00091B207EB080290B2FEF717FF4FEA6A0A00
:1017B00008F1010000F0FF0805EBD571B8EB610FEF
:1017C000E9DB601CC4B2AC42D3DB59490098088005
:1017D00000BF7BE710B50246012000E050430B003C
:1017E000A1F10104E1B2F9D110BD2DE9FF4F81B0A3
:1017F000074691461E460E9D4FF0000A00243BE02E
:10180000301B401EC1B20A20FFF7E4FFB9FBF0F025
:101810000A21B0FBF1F201FB120000F0FF08BAF15F
:10182000000F16D1701EA04213DDB8F1000F0ED1CB
:101830000023AB4605EBD571491001FB047188B25A
:1018400000932B4620220299FFF730FF12E04FF061
:10185000010A0023AB4605EBD571491001FB047169
:1018600088B200932B4608F13001CAB20299FFF703
:101870001DFF00BF601CC4B2B442C1DB05B0BDE8AF
:10188000F08F2DE9FF4F81B007468A4690461D46EE
:101890000E9E002420E0281B401EC1B20A20FFF744
:1018A00099FFB8FBF0F00A21B0FBF1F201FB120046
:1018B00000F0FF090F9BB34606EBD671491001FB00
:1018C000047188B20093334609F13001CAB251461F
:1018D000FFF7ECFE601CC4B2AC42DCDB05B0BDE837
:1018E000F08FF8B505460E4614461BE0E82D03DDE3
:1018F000002506F1100086B2B6F59C7F06DD0020BB
:10190000054606464FF6FF70FEF784FE002300935F
:101910002278102331462846FFF7C8FE05F108005B
:1019200085B2641C20780028E0D1F8BD12000020A8
:1019300010000020AE2B0008223000083649014379
:10194000364A1160704770B5002100230F22C47819
:101950004CB3324C246804F4E064C4F5E0644FEA0C
:101960001421C1F1040322FA01F2447804FA03F1CC
:10197000847804EA020444EA01014FEA0111284C88
:101980000678A155047804F01F054FF0010404FA0D
:1019900005F405784FEA65154FF0E02606EB85055E
:1019A000C5F8004109E0047804F01F050124AC40AB
:1019B0001C4D0678761145F8264070BD1A4A0A403B
:1019C00002431A4B1A60704741B1194A126842EA41
:1019D00000024FF0E023C3F8102D07E0144A12680C
:1019E00022EA00024FF0E023C3F8102D70470428CC
:1019F00008D14FF0E021096941F004014FF0E022E5
:101A0000116107E04FF0E021096921F004014FF076
:101A1000E0221161704700000000FA050CED00E0C3
:101A200000E400E080E100E080FFFF1F08ED00E03F
:101A300010ED00E010B50446CA48844208D10121E7
:101A4000042000F024FB0021042000F020FB46E0ED
:101A5000C548844208D10121082000F018FB00216C
:101A6000082000F014FB3AE0C048844208D101216C
:101A7000102000F00CFB0021102000F008FB2EE0ED
:101A8000BB48844208D10121202000F000FB002146
:101A9000202000F0FCFA22E0B648844208D101215F
:101AA000402000F0F4FA0021402000F0F0FA16E0A7
:101AB000B148844208D10121802000F0E8FA0021D9
:101AC000802000F0E4FA0AE0AC48844207D101210A
:101AD000801500F0DCFA0021A01500F0D8FA10BD46
:101AE00010B50121084600F0D2FA0021012000F0D3
:101AF000CEFA10BD2DE9F041024600250026002057
:101B000000230024002791F803C00CF00F0591F882
:101B100003C01CF0100F03D091F802C04CEA050579
:101B2000B1F800C01CF0FF0F31D0146800202BE08A
:101B30004FF0010C0CFA00F3B1F800C00CEA0306F8
:101B40009E4220D183004FF00F0C0CFA03F7BC43E8
:101B500005FA03FC4CEA040491F803C0BCF1280F19
:101B600006D14FF0010C0CFA00FCC2F814C00AE0D8
:101B700091F803C0BCF1480F05D14FF0010C0CFAED
:101B800000FCC2F810C0401C0828D1D31460B1F882
:101B900000C0BCF1FF0F34DD546800202EE000F1DE
:101BA000080C4FF0010808FA0CF3B1F800C00CEA79
:101BB00003069E4221D183004FF00F0C0CFA03F76D
:101BC000BC4305FA03FC4CEA040491F803C0BCF1E1
:101BD000280F05D100F1080C08FA0CF8C2F814809F
:101BE00091F803C0BCF1480F07D100F1080C4FF089
:101BF000010808FA0CF8C2F81080401C0828CED35F
:101C00005460BDE8F0814FF6FF71018002218170C0
:101C10000421C17070470246002093680B4201D036
:101C2000012000E0002070470146886880B27047BC
:101C300002460020D3680B4201D0012000E00020C2
:101C400070470146C86880B27047016170474161C2
:101C500070470AB1016100E041617047C16070479F
:101C60004FF480320A4382618161826182698269B4
:101C7000704702460020424B18684FF680731840A8
:101C800040EA021008433E4B186070473D49C86166
:101C90007047F0B50A46002300240021002500F01B
:101CA0000046B6F1004F02D1354EF16901E0344EE5
:101CB0007168C0F3034583B200F44016B6F5401FC7
:101CC00008D121F070612E4E766826F070662C4F98
:101CD0007E6012E000F48016B6F5801F06D1032660
:101CE00006FA05F4A14341F0706106E0460D3601A5
:101CF00003FA06F6B14341F0706122B1460D360198
:101D000003FA06F6314300F00046B6F1004F02D167
:101D10001B4EF16101E01A4E7160F0BD30B500223A
:101D20008B071C0F0F2303FA04F2154B08338C109A
:101D300053F824309343124C08348D1044F8253066
:101D400023468C1053F824308C07240F00FA04F437
:101D500023430B4C08348D1044F8253030BD0A491C
:101D60000860704700080140000C0140001001406D
:101D70000014014000180140001C014000200140F7
:101D80000000014000002042DC002042DB480068E7
:101D900040F00100D949086008464068D849084029
:101DA000D649486008460068D6490840D3490860CB
:101DB0000846006820F4802008600846406820F447
:101DC000FE0048604FF41F0088607047CB490968E7
:101DD00021F48031C94A11601146096821F480213B
:101DE0001160B0F5803F03D0B0F5802F0ED106E032
:101DF000C249096841F48031C04A116007E0BF4917
:101E0000096841F4A021BD4A116000E000BF00BF95
:101E1000704710B501460022002300204A11012A14
:101E200002D1B64C236806E0022A02D1B34C236AE1
:101E300001E0B24C636A01F01F02012494401C428D
:101E400001D0012000E0002010BD70B50024002565
:101E5000002600BF3120FFF7DCFF0646641CB4F506
:101E6000A06F01D0002EF5D03120FFF7D2FF08B1CE
:101E7000012500E00025284670BD014600209F4A4C
:101E8000106820F0F80040EAC100106070479E49D9
:101E90000860704702460020984B586820F47C1078
:101EA00042EA01031843954B58607047964908660B
:101EB000704701460020914A506820F00300084313
:101EC000506070478D48406800F00C007047014634
:101ED00000208A4A506820F0F000084350607047A4
:101EE00001460020854A506820F4E06008435060B5
:101EF000704701460020814A506820F4605040EA53
:101F0000C1005060704729B17C4A527A02437B4B32
:101F10005A7206E0794A527AC343DBB21A40774BD1
:101F20005A72704779490860704701460020734A29
:101F3000506820F440400843506070470021744AC4
:101F400011706E4A82F82010012802D0042808D1AE
:101F500003E001216E4A117004E005216C4A117002
:101F600000E000BF00BF70476A49086070476349DE
:101F7000096A0143614A1162704767490860704706
:101F800030B500210022002400235C4D6D6805F06F
:101F90000C0121B1042905D0082923D105E05F4DAA
:101FA000056022E05D4D05601FE0544D6D6805F44D
:101FB0007012524D6D6805F48034022505EB924293
:101FC0001CB9574D554305600BE04C4D6D6815F439
:101FD000003F03D0524D5543056002E04F4D55433D
:101FE000056002E04D4D056000BF00BF434D6D68C8
:101FF00005F0F00109094B4D6B5C0568DD4045605B
:102000003E4D6D6805F4E061090A464D6B5C45681C
:10201000DD408560394D6D6805F46051C90A414D58
:102020006B5C4568DD40C560344D6D6805F440412A
:10203000890B3D4D6B5CC568B5FBF3F5056130BDA3
:1020400029B12E4A526902432C4B5A6104E02B4AB3
:1020500052698243294B5A61704729B1274A9269D4
:102060000243264B9A6104E0244A92698243234B3F
:102070009A61704729B1214AD26902431F4BDA6144
:1020800004E01E4AD26982431C4BDA61704729B1D1
:102090001A4AD2680243194BDA6004E0174AD26840
:1020A0008243164BDA60704729B1144A1269024321
:1020B000124B1A6104E0114A126982430F4B1A61F4
:1020C00070471A49086070470F49C86470470B4948
:1020D000C87170470948406A40F0807007494862FB
:1020E000704701460020054A92680A4201D001204B
:1020F00000E00020704701498872704700100240DC
:102100000000FFF8FFFFF6FE00004242D800424206
:1021100020100240800442423C04424200127A00F5
:1021200000093D0016000020260000204004424225
:1021300010B50446FC48844209D101218803FFF709
:10214000A6FF00214FF48040FFF7A1FF32E0F748DF
:10215000844209D101214804FFF7A6FF00214FF472
:102160000030FFF7A1FF25E0F148844209D10121A9
:102170008804FFF799FF00214FF48020FFF794FFB8
:1021800018E0EC48844209D10121C804FFF78CFF14
:1021900000214FF40020FFF787FF0BE0E648844260
:1021A00008D101210805FFF77FFF00214FF48010BF
:1021B000FFF77AFF10BD2DE9F04786B005460E46C1
:1021C0000024A24600BFA1460027B08900B100BF8D
:1021D0002F462C8A4CF6FF700440F08804432C8272
:1021E000AC894EF6F3100440B088318908437189F8
:1021F00008430443AC81AC8A4FF6FF400440B089E9
:102200000443AC8201A8FFF7BBFEC748874202D156
:10221000DDF810A001E0DDF80CA0A88910F4004F53
:1022200008D00AEBCA0000EB0A1031684900B0FB85
:10223000F1F807E00AEBCA0000EB0A1031688900E8
:10224000B0FBF1F86420B8FBF0F004012009642130
:1022500001FB1089A88910F4004F08D0322000EB50
:10226000C900B0FBF1F000F00700044308E03220A1
:1022700000EB09106421B0FBF1F000F00F00044303
:102280002C8106B0BDE8F0874FF4165101600021A3
:102290008180C18001810C214181002181817047B1
:1022A00010B502460020108A4FF2FF0318400B8839
:1022B0004C8823438C882343CC88234318431082C3
:1022C00010BD0021018041808180C180704721B113
:1022D000828942F40052828104E082894DF6FF73C4
:1022E0001A4082817047F0B503460024002600257D
:1022F0000020A1F510676A3F00D100BF1846C1F366
:10230000421401F01F06012707FA06F5012C01D13E
:102310000C3004E0022C01D1103000E014301AB16E
:1023200007682F43076002E00768AF430760F0BD0E
:1023300010B51AB1838A0B43838204E0838ACC43AD
:10234000A4B22340838210BD028A4FF6F0731A4074
:102350000282028A0A430282704782894FF2FF7327
:102360001A40828182890A438281704721B1828921
:1023700042F00202828104E082894FF6FD731A4026
:1023800082817047028A4FF6DF731A400282028A06
:102390000A430282704721B1028A42F480420282DB
:1023A00004E0028A4BF6FF731A4002827047C1F3C1
:1023B00008028280704701468888C0F30800704791
:1023C000818941F0010181817047028BD2B2028381
:1023D000028B42EA012202837047028B02F47F42A1
:1023E0000283028B0A430283704721B1828A42F042
:1023F0002002828204E0828A4FF6DF731A408282D2
:10240000704721B1828A42F01002828204E0828AFF
:102410004FF6EF731A408282704721B1828A42F0F0
:102420000802828204E0828A4FF6F7731A408282A1
:10243000704721B1828942F40042828103E082899F
:10244000C2F30E028281704721B1828A42F4006297
:10245000828204E0828A4FF2FF731A4082827047C0
:10246000828A4FF6FB731A408282828A0A438282F2
:10247000704721B1828A42F00202828204E0828A9D
:102480004FF6FD731A408282704702460020B1F574
:10249000007F00D100BF13880B4201D0012000E073
:1024A0000020704701F40072B2F5007F00D100BF38
:1024B000CA430280704770B50246002400230025FD
:1024C0000020A1F510666A3E00D100BFC1F342159D
:1024D00001F01F03012606FA03F3012D02D19689AC
:1024E000334006E0022D02D1168A334001E0968A7D
:1024F00033400C12012606FA04F41688344013B156
:102500000CB1012000E0002070BD10B500220023B6
:10251000A1F510646A3C00D100BF0A120124944066
:10252000A3B2DC43048010BD0038014000440040E9
:1025300000480040004C00400050004010B50446E8
:102540006FF00400FFF753FAE11704EB5171C91063
:102550001F4A1170104600784FF47A7148431D49A4
:10256000088010BD01461B4A12884A434FF0E02301
:102570005A6100229A6101221A6100BF4FF0E022E5
:10258000106910F0010F02D010F4803FF6D0002245
:102590004FF0E0231A619A61704701460C4A1278A5
:1025A0004A434FF0E0235A6100229A6101221A61E6
:1025B00000BF4FF0E022106910F0010F02D010F4BC
:1025C000803FF6D000224FF0E0231A619A617047F5
:1025D0002A0000202C000020014600BF704700BFE9
:1025E000404A128812F0400FFAD0C2B23E4B1A8015
:1025F000704710B586B0044601210420FFF72DFD79
:1026000001214804FFF736FD0420ADF8140018201E
:102610008DF8170003208DF8160005A93348FFF741
:1026200069FA0820ADF8140004208DF8170005A9F8
:102630002E48FFF75FFA01940020ADF80800ADF8CE
:102640000A00ADF80C00ADF810000C20ADF80E003B
:1026500001A92748FFF7AFFD01212548FFF737FE05
:1026600040212348FFF71EFF06B010BD10B586B00D
:102670000446012144F20500FFF7EFFC4FF400701F
:10268000ADF8140003208DF8160018208DF81700FF
:1026900005A91648FFF72EFA4FF48060ADF8140034
:1026A00004208DF8170005A91048FFF723FA0194BC
:1026B0000020ADF80800ADF80A00ADF80C00ADF848
:1026C00010000C20ADF80E0001A90648FFF773FDBD
:1026D00001210448FFF7FBFD40210248FFF7E2FE1D
:1026E00006B010BD00380140043801400008014028
:1026F0000044004000210020674A126842F4803202
:10270000654B1A6000BF644A126802F40030491C2D
:1027100010B9B1F5A06FF6D15F4A126812F4003F0C
:1027200001D0012000E00020012842D15B4A12685C
:1027300042F01002594B1A601A46126822F0030246
:102740001A601A46126842F002021A60524A52682F
:10275000514B5A601A4652685A601A46526842F4FF
:1027600080625A601A46526822F47C125A601A46F5
:10277000526842F4E8125A601A46126842F08072B7
:102780001A6000BF444A126812F0007FFAD0424A31
:10279000526822F00302404B5A601A46526842F0D7
:1027A00002025A6000BF3C4A526802F00C02082A3A
:1027B000F9D1704710B5FFF79DFF10BD10B5364831
:1027C000006840F001003449086008464068344918
:1027D00008403149486008460068324908402E499F
:1027E00008600846006820F48020086008464068B9
:1027F00020F4FE0048604FF41F008860FFF7DAFF06
:102800004FF000602849086010BD10B5002100207D
:102810000022214B5B6803F00C0121B1042906D092
:10282000082928D107E0214B214C236027E01F4BCA
:102830001F4C236023E0184B5B6803F47010164BA9
:102840005B6803F48032022303EB904022B9194BFA
:102850004343174C23600DE00F4B5B6813F4003FBC
:1028600004D0144B4343124C236003E00F4B43430B
:102870000F4C236003E00D4B0D4C236000BF00BFE5
:10288000054B5B68C3F303130B4CE15C084B1B68FF
:10289000CB40074C236010BD0010024000200240D6
:1028A0000000FFF8FFFFF6FE08ED00E000127A00DE
:1028B0003400002000093D0038000020094880470E
:1028C00009480047FEE7FEE7FEE7FEE7FEE7FEE712
:1028D000FEE7FEE7FEE7FEE704480549054A064B2A
:1028E00070470000BD270008ED000008B800002078
:1028F000B8060020B8020020B8020020704700008F
:102900000FB4044910B503AA029800F0C7F810BC30
:102910005DF814FB300000202DE9F04104460E461E
:1029200000200AE0E1682046884738B3252806D011
:10293000D4E901219047206A401C2062F2E7E16857
:10294000204600278847050018D0A5F14100192826
:1029500002D820354FF400673246294620462760CA
:10296000FDF7FEFB40B1012804D0F61D26F0070656
:102970000836D7E7361DD5E72846D9E7206ABDE8EF
:10298000F081000070B504460D4621461068AFF393
:1029900000802168090502D5104A7A4402E00F4AF6
:1029A0007A440E32002104F1240307E000F00F0600
:1029B0004FEA1010965D5E5401F101010028F5D137
:1029C00020680023000704D5702D02D009B1113210
:1029D00002232046BDE8704000F006B8740C0000E9
:1029E00070477047704770472DE9F0470D46044621
:1029F0009246994600F124080168880604D5E069EA
:102A000021F01001216000E001200027A84201DD33
:102A1000A0EB0507A16907EB050202EB0300A1EBA0
:102A20000000A0612068C00602D42046AFF30080F9
:102A3000002608E0D4E901211AF806009047206A30
:102A4000401C761C20624E45F4DB2068C0060AD587
:102A50002046AFF3008006E0D4E901213020904702
:102A6000206A401C2062381EA7F10107F4DC07E051
:102A7000D4E9012118F805009047206A401C206223
:102A8000281EA5F10105F3DC2046AFF30080216884
:102A90000220090600D40120BDE8F087074B70B57D
:102AA0000C467B4400F011F80546204600F020F863
:102AB00010B14FF0FF3070BD284670BD39FBFFFFED
:102AC00001694A1C02610878704700B58FB0CDE9F2
:102AD00001310021059105497944CDE903101146E2
:102AE0006846FFF719FF0FB000BD0000E5FFFFFFCC
:102AF000C06800F080007047754600F029F8AE46C7
:102B000005006946534620F00700854618B020B5F9
:102B1000FFF7E2FEBDE820404FF000064FF000074F
:102B20004FF000084FF0000B21F00701AC46ACE875
:102B3000C009ACE8C009ACE8C009ACE8C0098D46E2
:102B400070470446AFF300802046FDF71DFB0000F0
:102B5000004870475400002001487047704700BF8C
:102B60005800002030B504460D460C480088A0F5FA
:102B70000941893908D121464E20FDF757FC2946E5
:102B80004F20FDF753FC07E021462020FDF74EFCC7
:102B900029462120FDF74AFC30BD0000140000202A
:102BA00010B5FFF7D9FF4FF00001016010BD000024
:102BB0000000000000000000000000000404040405
:102BC00004040004000000140A0A000000000000D1
:102BD0000000000014143F140A3F0A0A0000000419
:102BE0001E1505060C14150F0400000012150D0A21
:102BF000142C2A1200000000040A0A1E15150936BA
:102C0000000000020201000000000000000000209F
:102C10001008080808080810200000020408080826
:102C200008080804020000000004150E0E15040038
:102C3000000000000404041F04040400000000005D
:102C40000000000000000002020100000000001F60
:102C50000000000000000000000000000000000272
:102C6000000000100808080404020202010000002D
:102C70000E1111111111110E0000000004060404C0
:102C80000404040E000000000E1111080402011FCC
:102C9000000000000E11100C1010110E00000000BA
:102CA000080C0A0A091E0818000000001F01010F85
:102CB0001010110E000000000E09010F1111110E6D
:102CC000000000001F0908040404040400000000C0
:102CD0000E11110E1111110E000000000E11111134
:102CE0001E10120E0000000000000400000000048E
:102CF00000000000000000040000000404000020A8
:102D000010080402040810200000000000001F004A
:102D1000001F000000000002040810201008040238
:102D2000000000000E11110804040004000000005F
:102D30000E111915151D011E0000000004040C0AD7
:102D40000A1E1233000000000F12120E1212120F90
:102D5000000000001E1101010101110E0000000021
:102D60000F1212121212120F000000001F120A0E90
:102D70000A02121F000000001F120A0E0A020207B8
:102D8000000000001C1201013911120C00000000AB
:102D90003312121E12121233000000001F0404042A
:102DA0000404041F000000003E0808080808080981
:102DB0000700000037120A060A0A12370000000056
:102DC000070202020202223F000000001B1B1B1B25
:102DD00015151515000000003B1216161A1A1217C9
:102DE000000000000E1111111111110E0000000061
:102DF0000F12120E02020207000000000E11111144
:102E00001117190E180000000F12120E0A121237B5
:102E1000000000001E1101060810110F0000000044
:102E20001F1504040404040E0000000033121212E3
:102E30001212120C000000003312120A0A0C0404D1
:102E4000000000001515150E0A0A0A0A000000000D
:102E50001B0A0A04040A0A1B000000001B0A0A04D9
:102E60000404040E000000001F0908040402121FDD
:102E70000000001C04040404040404041C000002F8
:102E800002020404080808100000000E08080808E0
:102E9000080808080E0000040A00000000000000F6
:102EA000000000000000000000000000003F0004DF
:102EB0000000000000000000000000000000000C06
:102EC000121C123C000000000302020E1212120E2D
:102ED000000000000000001C1202021C00000000A4
:102EE0001810101C1212123C000000000000000C10
:102EF000121E021C000000003804041E0404041EFC
:102F0000000000000000003C120C021E221C000009
:102F10000302020E12121237000000000400000625
:102F20000404040E000000000800000C0808080853
:102F3000080700000302023A0A0E123700000000E0
:102F4000070404040404041F000000000000000F34
:102F500015151515000000000000000F12121237A1
:102F6000000000000000000C1212120C0000000013
:102F70000000000F1212120E020700000000001CD9
:102F80001212121C103800000000001B060202077B
:102F9000000000000000001E020C101E00000000D7
:102FA0000004040E04040418000000000000001BCC
:102FB0001212123C0000000000000037120A0C043C
:102FC0000000000000000015150E0A0A00000000B5
:102FD0000000001B0A040A1B00000000000000376C
:102FE000120A0C04040300000000001E0804041E62
:102FF0000000001808080804080808081800080855
:103000000808080808080808080800060404040856
:10301000040404040600022518000000000000005B
:1030200000000000000000000000000000000000A0
:103030000000000000080808080808080000181828
:10304000000000486C241200000000000000000096
:1030500000000000002424247F1212127F1212129A
:1030600000000000081C2A2A0A0C1828282A2A1CFA
:10307000080800000022251515152A58545454221A
:1030800000000000000C1212120A76252911916E20
:10309000000000060604030000000000000000001D
:1030A0000000004020101008080808080810102030
:1030B0004000000204080810101010101008080446
:1030C00002000000000008086B1C1C6B08080000D0
:1030D000000000000000080808087F080808080031
:1030E00000000000000000000000000000000606D4
:1030F00004030000000000000000FE0000000000CB
:1031000000000000000000000000000000000606B3
:103110000000000080404020201010080804040235
:103120000200000000182442424242424242241857
:103130000000000000080E08080808080808083EFB
:1031400000000000003C4242422020100804427E61
:1031500000000000003C4242201820404042221C57
:103160000000000000203028242422227E20207825
:1031700000000000007E0202021A26404042221C8B
:103180000000000000382402021A2642424224189D
:1031900000000000007E222210100808080808081D
:1031A00000000000003C4242422418244242423CBB
:1031B0000000000000182442424264584040241C91
:1031C000000000000000000018180000000018189F
:1031D00000000000000000000008000000000008DF
:1031E00008040000004020100804020408102040D9
:1031F00000000000000000007F0000007F000000D1
:103200000000000000020408102040201008040202
:1032100000000000003C42424640201010001818F8
:1032200000000000001C225A555555552D42221C05
:1032300000000000000808181414243C224242E751
:1032400000000000001F2222221E22424242221FB2
:1032500000000000007C4242010101010142221CE9
:1032600000000000001F2242424242424242221F0E
:1032700000000000003F4212121E12120242423FA2
:1032800000000000003F4212121E1212020202074A
:1032900000000000003C2222010101712122221CB9
:1032A0000000000000E7424242427E42424242E7C2
:1032B00000000000003E0808080808080808083E4A
:1032C00000000000007C10101010101010101010E2
:1032D000110F0000007722120A0E0A121222227722
:1032E0000000000000070202020202020202427F06
:1032F000000000000077363636362A2A2A2A2A6B42
:103300000000000000E346464A4A525252626247B9
:1033100000000000001C2241414141414141221C6A
:1033200000000000003F424242423E020202020709
:1033300000000000001C2241414141414D53321C1C
:1033400060000000003F4242423E1212222242C769
:1033500000000000007C4242020418204042423E2D
:1033600000000000007F4908080808080808081C39
:103370000000000000E74242424242424242423CD8
:103380000000000000E74242222424141418080818
:1033900000000000006B4949494955553622222258
:1033A0000000000000E7422424181818242442E7F3
:1033B0000000000000772222141408080808081CE6
:1033C00000000000007E2120101008040442423F4B
:1033D0000000007808080808080808080808080815
:1033E00078000000020204040808081010202020C1
:1033F0004040001E1010101010101010101010106F
:103400001E00003844000000000000000000000022
:1034100000000000000000000000000000000000AC
:1034200000FF00060800000000000000000000008F
:103430000000000000000000003C4278444242FCD2
:103440000000000000030202021A26424242261A2D
:10345000000000000000000000384402020244386E
:10346000000000000060404040784442424264D87E
:103470000000000000000000003C427E0202423CCE
:103480000000000000F08808087E08080808083ED0
:103490000000000000000000007C22221C023C42D0
:1034A000423C000000030202023A4642424242E726
:1034B00000000000000C0C00000E08080808083E80
:1034C00000000000003030000038202020202020A4
:1034D000221E0000000302020272120A1612227754
:1034E00000000000000E0808080808080808083E48
:1034F0000000000000000000007F9292929292B7BC
:103500000000000000000000003B4642424242E74B
:103510000000000000000000003C42424242423CE9
:103520000000000000000000001B26424242221E54
:103530000207000000000000007844424242447844
:1035400040E000000000000000774C040404041F69
:103550000000000000000000007C42023C40423EAF
:103560000000000000000008083E080808080830B5
:10357000000000000000000000634242424262DCA2
:10358000000000000000000000E7422424140808A6
:10359000000000000000000000EB494955552222C0
:1035A0000000000000000000007624181818246EA7
:1035B000000000000000000000E742242414180866
:1035C0000807000000000000007E22100808447E6A
:1035D000000000C0202020202010202020202020BB
:1035E000C00010101010101010101010101010103B
:1035F000101000060808080808100808080808083D
:1036000006000C32C20000000000000000000000B4
:103610000000303132333435363738394142434493
:10362000454640305800303132333435363738393A
:103630006162636465664030780000005C360008B3
:10364000000000204800000028010008A4360008FF
:10365000480000207006000044010008000000003F
:103660000000000000000000000000000000FFFF5C
:103670000000000000000102030401020304060729
:103680000809020406080000000000000000000015
:1036900000A24A0400000000000000000102030430
:0436A0000607080908
:04000005080000ED02
:00000001FF
